:020000040800F2
:10000000004C0020310100085901000809060008D1
:1000100000000000000000000000000000000000E0
:100020000000000000000000000000005D0100086A
:1000300000000000000000005F01000871080008D7
:100040006501000867010008690100086B010008EC
:100050006D0100086F01000899060008AD06000850
:10006000C1060008D5060008E90600087B01000863
:100070007D0100087F01000881010008830100085C
:100080008501000887010008890100088B0100082C
:100090008D0100088F01000891010008FD0600088D
:1000A0009501000897010008990100089B010008CC
:1000B0009D0100089F010008A1010008A30100089C
:1000C000A5010008A7010008A9010008AB0100086C
:1000D000AD010008AF010008B1010008B30100083C
:1000E00011070008B7010008B9010008BB010008AA
:1000F000BD010008BF010008C1010008C3010008DC
:10010000C5010008C7010008C9010008CB010008AB
:10011000CD010008CF010008D1010008D30100087B
:10012000D5010008D7010008D9010008DB0100084B
:10013000054820F0070085460448804704480549E3
:10014000016000F04BB800000050002035030008AB
:1001500008ED00E000000008FEE7FEE7FEE7FEE72E
:10016000FEE7FEE7FEE7FEE7FEE7FEE7FEE7FEE767
:10017000FEE7FEE7FEE7FEE7FEE7FEE7FEE7FEE757
:10018000FEE7FEE7FEE7FEE7FEE7FEE7FEE7FEE747
:10019000FEE7FEE7FEE7FEE7FEE7FEE7FEE7FEE737
:1001A000FEE7FEE7FEE7FEE7FEE7FEE7FEE7FEE727
:1001B000FEE7FEE7FEE7FEE7FEE7FEE7FEE7FEE717
:1001C000FEE7FEE7FEE7FEE7FEE7FEE7FEE7FEE707
:1001D000FEE7FEE7FEE7FEE7FEE7FEE735493648C5
:1001E0000A1A02D0072291438D46344934480A1A2C
:1001F00006D00722914381F30988022282F31488F2
:1002000030483149314A00F043F831483149324AE7
:1002100000F03EF831483249324A00F039F83248AD
:100220003249334A00F034F832483349334A00F057
:100230002FF833483349344A00F02AF83348344918
:10024000344A00F025F834483449002200F02BF8F5
:1002500033483449002200F026F833483349091A5C
:10026000082903DB00220260043001601F48204996
:10027000884205D00268043003B4904703BCF7E716
:1002800000208646EC4600200021294A9047FEE7E0
:10029000884207D0521A05D0037801300B70013123
:1002A000013AF9D17047884202D002700130FAE772
:1002B00070470000004C0020004800200050002043
:1002C000004C0020182A0008000000201400002024
:1002D000340300083403000824280008182A000802
:1002E0000000002000000020242800082428000826
:1002F00024280008242800082428000824280008AE
:100300002428000824280008182A00082C2A00089D
:1003100014000020140000201400002028000020F9
:10032000280000202C0000202C0000202C010020A0
:04033000F1070008C9
:1003340008B5164A154B1B6843F0010313601349B3
:10034400124B5A68124B13404B60104A0F4B1B68F8
:1003540023F0847323F4803313600C4A0B4B1B6823
:1003640023F480231360094A084B5B6823F4FE03DB
:100374005360064B4FF41F029A6000F075F8054B6A
:100384004FF000629A6000BF08BD00BF0010024039
:100394000000FFF800ED00E084B000230393002385
:1003A4000293002301932B4B5B6803F00C0303932C
:1003B400039B042B07D0082B09D0002B33D1264BE9
:1003C400264A1A6033E0244B244A1A602FE0214B5A
:1003D4005B6803F4701302931E4B5B6803F4803371
:1003E4000193029B9B0C02330293019B002B06D1C9
:1003F400029B1B4A02FB03F3174A136017E0154BD9
:100404005B6803F40033002B06D0029B144A02FB02
:1004140003F3114A13600AE0029B104A02FB03F340
:100424000D4A136003E00C4B0C4A1A6000BF094BE1
:100434005B681B0903F00F030A4AD35CDBB2039326
:10044400054B1A68039B22FA03F3034A136000BFA7
:1004540004B07047001002400000002000127A002F
:1004640000093D000400002008B500F003F800BFB7
:1004740008BD000082B000230193002300933A4A90
:10048400394B1B6843F480331360374B1B6803F408
:1004940000330093019B01330193009B002B03D194
:1004A400019BB3F5A06FF0D12F4B1B6803F400330D
:1004B400002B02D00123009301E000230093009B52
:1004C400012B4DD1294A294B1B6843F010031360BB
:1004D400264A264B1B6823F003031360234A234B4D
:1004E4001B6843F0020313601F4A1F4B5B68536091
:1004F4001D4A1D4B5B6843F4005353601A4A1A4B60
:100504005B6843F480635360174A174B5B6823F4BA
:100514007C135360144A144B5B6843F4E813536030
:10052400114A114B1B6843F08073136000BF0E4BDC
:100534001B6803F00073002BF9D00B4A0A4B5B686D
:1005440023F003035360084A074B5B6843F002033C
:10055400536000BF044B5B6803F00C03082BF9D114
:1005640000BF02B0704700BF0010024000200240EC
:1005740000B583B00190019B0A2B02D10D2000F03D
:10058400C1FA019800F0BEFA0346184603B05DF8BC
:1005940004FB0000134A134B9B6943F4016343F0CB
:1005A4000D039361104A104B1B6823F4400313603E
:1005B4000D4A0D4B1B6843F4401313600B4A0B4B5D
:1005C4005B6823F440135360084A084B5B6823F4C8
:1005D40080035360054A054B5B6843F40003536092
:1005E40000BF7047001002400008014000100140A5
:1005F40008B5FFF7D1FEFFF7CDFF00F029F800BFE3
:1006040008BD000008B5044800F0B4F94D220349C0
:10061400034800F0AFF9FEE724280008302800085A
:100624009428000882B003468DF8073007499DF9E5
:1006340007305B099DF8072002F01F02012000FA31
:1006440002F241F8232000BF02B0704700E100E04D
:1006540008B50E4A0D4B1B6843F4005313600B4A54
:100664000A4BDB6843F40053D360094A084B5B69C7
:1006740003F0F0035361064A054B5B6943F0200322
:1006840053612820FFF7CEFF00BF08BD00040140DE
:100694000000014082B0034B5B69019300BF02B0CC
:1006A400704700BF0004014082B0034B5B690193B3
:1006B40000BF02B0704700BF0004014082B0034B8A
:1006C4005B69019300BF02B0704700BF00040140A2
:1006D40082B0034B5B69019300BF02B0704700BF57
:1006E4000004014082B0034B5B69019300BF02B078
:1006F400704700BF0004014082B0034B5B69019363
:1007040000BF02B0704700BF0004014000B583B0D1
:100714000F4B5B690193019B03F40053002B13D02F
:100724000C4B1B68002B0CBF01230023DBB21A46C1
:10073400084B1A60074B1B681946074800F01AF962
:10074400034B4FF400525A6100BF03B05DF804FB41
:100754000004014018000020AC28000882B00346C1
:1007640000918DF807309DF90730002B0CDA0D4904
:100774009DF8073003F00F03043B009AD2B2120134
:10078400D2B20B441A7609E007499DF90730009A62
:10079400D2B21201D2B20B4483F8002300BF02B0DC
:1007A400704700BF00ED00E000E100E000B583B059
:1007B4000190019B013BB3F1807F01D301230FE042
:1007C400094A019B013B53600F214FF0FF30FFF7B3
:1007D400C5FF054B00229A60034B07221A600023D1
:1007E400184603B05DF804FB10E000E000B583B0E8
:1007F40000230193FFF7FCFE164800F0BBF8164BEC
:100804001B68164AA2FB0323DB081846FFF7CEFF3A
:10081400134B1B68002BFBD0114B00221A60114BA9
:100824001B68002B11D0019B002B0CBF012300235C
:10083400DBB20193019B002B03D00B4B20221A61E6
:10084400E6E7094B20225A61E2E7074B20225A616E
:10085400DEE700BFBC28000800000020CDCCCCCCD3
:10086400140000201800002000080140024B01225F
:100874001A6000BF704700BF140000200048704792
:1008840020000020704770477047704770B5041E01
:1008940007DB002CC8BF002620DD00201149124DC3
:1008A40008E06442002C16DD0126F6E764100835E2
:1008B400002C07DD14F0010FF8D0D5E9002301F076
:1008C400A7FBF3E736B102460B460020054901F0C9
:1008D40055FC70BD70BD00200249F4E700200149B9
:1008E40070BD00BF0000F03FF828000838B504468A
:1008F4000846A16841B1236862685D1C954208BF3F
:100904000020934208D2C854E3682BB1216862687E
:10091400914201D22146984723680133236038BDB0
:1009240070B54C1E09D41646C5B229463046FFF7A9
:10093400DDFF013CB4F1FF3FF7D170BD10F0100FA3
:1009440009D108B500F40070002814BF302020201D
:10095400FFF7E6FF08BD70470028B8BF4042704764
:1009640000B5FFF78BFF024B18445DF804FB00BF92
:10097400080000000FB410B586B008AB53F8044B60
:100984000593002303936FF000430293084B0493F1
:10099400FFF778FF059A214601A800F0BFF8044646
:1009A400FFF771FF204606B0BDE8104004B0704761
:1009B4007505000803784BB151B10144034613F89F
:1009C400012F0AB18B42FAD1181A70470346FBE78C
:1009D4000346F9E700F1010110F0030F11D010F8FC
:1009E400012B002A23D010F0030F0AD010F8012B9A
:1009F400002A1CD010F0030F03D010F8012B002A9A
:100A040015D02DE970004FF001324FF0803350F8CB
:100A1400044BA4EB020525EA04051D4000D1F6E7CA
:100A2400A0F1040070BC10F8012B002AFBD1A0EB4C
:100A34000100704753EA020C61D02DE9F04BB3FA80
:100A440083F51E0007BFB2FA82F502FA05F403FA31
:100A540005F41646C5F120051EBF22FA05F73C43EE
:100A6400203556EA044C4FEA144418BF0134A34617
:100A74004FF00009C846904271EB030C39D3094288
:100A840007BFB0FA80F700FA07F6B1FA81F701FA66
:100A940007F6C7F120071EBF20FA07FC46EA0C063A
:100AA4002037B6FBFBFC7F1B103F07F01F04C4F18B
:100AB40020060CFA04F42CFA06F644BF3446002649
:100AC400202FA4BF2646002454EA060C08BF0124A4
:100AD40018EB040849EB0609A4FB027CC01B06FBC7
:100AE40002CC04FB03CC71EB0C01904271EB030CC0
:100AF400C5D20B46024649464046BDE8F08BB2FBE0
:100B0400F3F200BF10B504460146172001F0A0F827
:100B140000280CBF20464FF0FF3010BD2DE9F04FE8
:100B240095B004900B9200230360894672E300257C
:100B340002E045F040052646344614F8010BA0F1C6
:100B440020033E2B00F2948001A252F823F000BF50
:100B5400370B0008750C0008750C0008510C0008D0
:100B6400750C0008750C0008750C0008570C00087B
:100B7400750C0008750C0008750C0008630C00085F
:100B8400750C0008690C0008750C0008750C000849
:100B94006F0C0008750C0008750C0008750C000833
:100BA400750C0008750C0008750C0008750C00081D
:100BB400750C0008750C0008750C0008750C00080D
:100BC400750C0008750C0008750C0008750C0008FD
:100BD400750C0008750C0008750C0008750C0008ED
:100BE400750C0008750C0008750C0008750C0008DD
:100BF400750C0008750C0008750C0008750C0008CD
:100C0400750C0008750C0008750C0008750C0008BC
:100C1400750C0008750C0008750C0008750C0008AC
:100C2400750C0008750C0008750C0008750C00089C
:100C3400750C0008750C0008750C0008750C00088C
:100C4400750C0008750C00085D0C000845F0800563
:100C540071E745F400456EE745F480556BE745F0D0
:100C6400200568E745F0100565E745F4007562E77F
:100C74002A282CD0A0F13003DBB2092B88BF002333
:100C84000CD8002303EB8303303800EB430314F840
:100C9400010BA0F13002D2B2092AF3D923EAE3739B
:100CA40002932E281FD04FF00008742846D07A28CB
:100CB40044D06A2800F0C3806C2800F0C6804C2819
:100CC40000F0D180682800F0DF80A14639E00B9B5A
:100CD4001A1D0B921B68002BBCBF5B4245F010052C
:100CE4002078B41CDAE7621C20782A281CD0A0F1F2
:100CF4003003DBB2092B88BF4FF0000810D84FF047
:100D0400000808EB8808303800EB480812F8010B9B
:100D1400A0F13003DBB2092BF3D9B8F1000F0BDBE0
:100D240045F480751446C0E70B9B1A1D0B92D3F84B
:100D34000080A21C6078F0E71446B6E704F10109CC
:100D44002078782800F2AE80DFE810F05407AC0079
:100D5400AC00AC00AC00AC00AC00AC00AC00AC002F
:100D6400AC00AC00AC00AC00AC00AC00AC00AC001F
:100D7400AC00AC00AC00AC00AC00AC00AC00AC000F
:100D8400AC00AC00AC00AC00AC00AC00AC00AC00FF
:100D9400AC00AC00AC00AE00AC00AC00AC00AC00ED
:100DA400AC00AC00AC00AC00AC00AC00AC00AC00DF
:100DB400AC00AC00AC00AC00AC00AC00AC00AC00CF
:100DC400AC00AC00AC00AC00AC00AC00AC00AC00BF
:100DD400AC00AC00AC00FE0173027802AC00AC00C5
:100DE400AC00AC00AC00AC00AC00AC00AC00AC009F
:100DF400AC00AC00AC00AC00AC00AC001101AC0029
:100E0400AC00AC00AC00AC00AC00AC00AC00AC007E
:100E1400AC00B3006201000275027A02AC00620108
:100E2400AC00AC00AC00AC00CA004D01EF00AC005B
:100E3400AC00E300AC005A01AC00AC00130145F077
:100E4400020504F1010920787BE720786C2804D09E
:100E540004F1010945F0010573E745F0020504F1C9
:100E6400020960786DE745F00105B44B1E68002E59
:100E740000F0AF860BAB0193CDF80080029B2A46AD
:100E84000499B047A146C5E12078682804D004F14C
:100E9400010945F0040554E745F0080504F1020989
:100EA40060784EE74C46E0E725210498FFF71EFDE5
:100EB400B0E10B9B1A1D0B921C78029B5E1E049FD3
:100EC4003A4631462846FFF739FD21463846FFF7B2
:100ED4000DFD9BE1049A31462020FFF721FD99E1A5
:100EE40015F0080F0DD115F0020F0B9B03F104024E
:100EF4000B921B68049A12681A601CBF00225A6085
:100F040088E10B9B1A1D0B921B68049A12681A70D5
:100F140080E10B9B1A1D0B92D3F800A02E464FE1E3
:100F24005046FFF757FD04465AE10B990B1D0B93EE
:100F34000A68002392469B4605F080035B450CBF7C
:100F44005B462323059345F480754FF00808524609
:100F54005B465AEA0B0100F026860DAE002405F428
:100F64000057DFF8DCC1DFF8DCE100F0E7BD45F451
:100F7400005515F0800F33D043F2580343F2780242
:100F8400782818BF1A46059215F4807F01D025F4FD
:100F9400007515F4804F5AD015F0020F40D00B9B0A
:100FA400073323F0070303F108020B92D3E900ABE4
:100FB40015F0040F3CD00FFA8AFA4FEAEA7BBAF133
:100FC400000F7BF100033BDB15F0200F40F0B280F3
:100FD40005F04003002B059B18BF2023059349E02F
:100FE40000230593D0E705F08003002B0CBF0023FA
:100FF4003023059315F4807FCBD025F40075C8E722
:1010040015F4807F09D025F4007500230593C0E70B
:1010140045F4804500230593BBE700230593B8E717
:101024000B9B1A1D0B921B689A464FEAE37BBFE7A2
:1010340015F0080FC3D00AF0FF0A4FF0000BC3E706
:10104400DAF1000A6BEB4B0B2D23059312E015F03C
:10105400020F5FD00B9B073323F0070303F1080251
:101064000B92D3E900AB15F0040F5BD01FFA8AFA98
:101074004FF0000B15F4807F00F0FB8425F400751D
:101084005838202800F28D8501A353F820F000BFC2
:10109400530F0008A71B0008A71B0008A71B000884
:1010A400A71B0008A71B0008A71B0008A71B000814
:1010B400A71B0008A71B0008A71B0008A71B000804
:1010C400FD1A0008A71B0008A71B0008A71B00089F
:1010D400A71B0008FD1A0008A71B0008A71B00088F
:1010E400A71B0008A71B0008A71B00087F1A0008FD
:1010F400530F0008A71B0008A71B0008A71B000824
:10110400A71B0008FD1A0008A71B0008A71B00085E
:10111400530F00080B990B1D0B930A68002392468A
:101124009B46A0E715F0080FA4D00AF0FF0A4FF081
:10113400000B9FE72B2305939CE700BF1C000020B6
:10114400D0280008E028000845F4005545F48066DE
:101154000B9B073323F0070303F108020B92D3E937
:101164000045A246AB4616F4807F6CD0B8F1000F60
:1011740008D106F44068B8F5406F14BF4FF000087A
:101184004FF001082046294601F094F9002866D062
:10119400002200232046294601F050F9002855D1A9
:1011A40006F40053B149B24A002B14BF13460B4650
:1011B40016F0200F14BF9A4603F1010A26F4807634
:1011C400AC4BBAF1000F08BF9A4626F4007516F42A
:1011D400807F3FF4A5AE41465046FFF7EBFB044643
:1011E400029B1E1B049A31462846FFF7A7FB631E89
:1011F40005935CB153460AF1010A19780498FFF784
:1012040075FB013CF6D14FF0FF33059315F0100F39
:101214007FF460AE09F1010699F80010002900F08E
:10122400DB8425293FF483AC0498FFF75FFBB146C8
:10123400F0E745F4005545F4006689E745F40055A8
:1012440045F4406684E74FF006089BE706F4005334
:10125400894A8A49002B14BF8A469246AEE7204643
:10126400294601F02FF9074650B106F40051844B8A
:10127400844A002914BF92469A4626F480769FE752
:101284002046294601F012F938B146F06006089468
:1012940005F100430993DDE908AB13AA504659460A
:1012A40001F018F9139B03EB4303774A82FB031203
:1012B400DB17C3EBA20313930022002350465946C5
:1012C40001F066F8002840D006F44064B4F5806F5D
:1012D4005DD0B4F5406F54D016F4806F00F04982AD
:1012E400139B0E2B00F344820133A8EB0308B8F1DF
:1012F400100FA8BF4FF0100816F0800F40F039828D
:10130400B8F1000F00F035824046FFF7BFFA0246FD
:101314000B465046594600F07BFE00225B4B00F022
:1013240033FD01F079F90022594B01F0C3F9002291
:10133400002301F02DF8002800F01B82B8F1010809
:10134400E2D116E2139B0133139313980130FFF794
:101354009DFA02460B465046594601F08BF8002888
:10136400F0D102E0139B013B13931398FFF78EFA1D
:1013740002460B465046594601F060F80028F1D168
:10138400A2E7139B984502DD13F1040FA4DA139826
:10139400B0F59A7F0BD04042FFF778FA02460B462D
:1013A4005046594600F034FE82468B4608E02DA391
:1013B400D3E900235046594600F0E0FE82468B46AE
:1013C40050465946CDE906010022002300F0E0FF13
:1013D400002861D0B8F1000F00F0C280B4F5406F6E
:1013E40000F0BC80C8F10000FFF750FA0022274B40
:1013F40000F00EFE52465B4600F0C6FC04460D4665
:1014040082468B460022224B00F0FAFF002840F06F
:10141400BC8006F40863B3F5006F00F0D18026F4B5
:101424000063069308F10503029AD31A0293029B00
:10143400013B029316F4805F00F01981139C154B55
:1014440083FB0423A3EBE47303EB4303E31A0233A8
:10145400042B00F20A81DFE813F0EA00F900E60049
:10146400EA00F900A0C8EB85F3CCE17F5829000815
:101474005029000868290008482900084029000864
:101484006429000860290008676666660000E03F7A
:101494000000244056555555DDE9060101F00AF8CF
:1014A40000283BD10022A94BDDE9060100F0A8FF8A
:1014B40090B1139D01350022A44BDDE9060100F033
:1014C4005DFECDE906010022A04B00F099FF002843
:1014D400F0D11395DDE906AB50465946CDE9060136
:1014E40000229B4B00F0AAFF00283FF473AF139D2A
:1014F400013DAA460022954BDDE9060100F088FD76
:10150400CDE90601013D0022914B00F097FF002830
:10151400EFD1CDF84CA0DDE906AB5BE70022002358
:10152400DDE9060100F08AFF40B106F40053894A60
:101534008949002B14BF8A4692460CE006F40052F7
:101544008649874B002A08BF0B469A4616F0200F9F
:1015540008BF03F1010A26F4807631E608F1FF386A
:10156400C8F10000FFF792F900227E4B00F050FD15
:1015740052465B4600F008FC04460D4682468B4604
:101584000022724B00F03CFF50B1139B01331393C4
:1015940000226E4B2046294600F0F0FD82468B4621
:1015A400B8F1000F7FF435AF26F400630693029B75
:1015B400053B029316F080083FF43CAFB84636E78B
:1015C400B8F1100FA8BF4FF010084046FFF75EF9BE
:1015D40002460B465046594600F01AFD00F0AAFB9D
:1015E40004460D4654EA0503DED0B8F1000FDBD003
:1015F4000A220023FFF71EFA13437FF410AF08F109
:10160400FF380A22002320462946FFF713FA04462E
:101614000D46B8F1000FC7D00A220023FFF70AFADB
:101624001343ECD0FBE6012728EAE87820E0002207
:10163400464B5046594600F0EBFC82468B46013C33
:101644001394029B013B02930227EDE70022464BD1
:101654005046594600F0DCFC82468B46023C13940B
:10166400029B023B02930327DEE7059FDCE7012789
:1016740016F0600F02D0029B013B02931398FFF710
:101684006BF9632802DD029B013B029350465946E5
:1016940000F050FB04460D4600F042FB02460B46A8
:1016A4005046594600F06EFB82468B46029B23EA65
:1016B400E3730593069A12F4047F14D19BB1202698
:1016C400CDE902454D46C146B8461F46013F314665
:1016D4000498FFF70BF9002FF8D105974746C84641
:1016E400A946DDE90245069A12F0200F00F0C580F4
:1016F40002F04003002B14BF2D212B210498FFF787
:10170400F5F8069B13F0100F15D1059B9BB13026FD
:10171400CDE902454D46C146B8461F46013F314614
:101724000498FFF7E3F8002FF8D105974746C84619
:10173400A946DDE9024507F10053013B0B4E06EBD8
:10174400C306CDE902ABDDF810B0A5E000002440EB
:101754000000F03F482900084029000858290008E3
:10176400502900080000E03F00005940702900089B
:10177400B84626F480630693139B103BC8F100001F
:101784008342A8BF1846FFF781F84FF0FF3200F0FC
:10179400C5FE02460B465046594600F0F5FA82460D
:1017A4008B4604460D4613980130FFF76FF8024646
:1017B4000B465046594600F05DFE10B1139B0133B1
:1017C40013931398002850DB102838DCA246AB464C
:1017D4002046294600F0AEFA04460D4600F0A0FA71
:1017E40002460B465046594600F0CCFA82468B46D8
:1017F40000231393002D08BF0A2C3CD3BA4B0127B6
:101804000137F3E902018D4208BF8442F8D208EBA4
:101814000703139A1344029AD31A0293B8F1000FE0
:1018240002D116F0800F02D0029B013B029316F006
:10183400600F3FF43BAF029B013B029336E7A0F1FC
:1018440010031393C0F11000FFF720F802460B4673
:101854002046294600F0DCFB00F06CFA04460D46F5
:101864004FF0000A4FF0000BC4E700231393002449
:1018740000250127CBE70127C9E7069B13F0400F9A
:101884003FF43FAF20210498FFF730F839E73021C7
:101894005846FFF72BF88FB1013F76E802239D42AB
:1018A40008BF9442F3D330210131C9B2A41A65EBC5
:1018B40003059D4208BF9442F6D2E9E7DDE902AB95
:1018C400069B13F400640CD0139B002B09DD302518
:1018D400013B139329460498FFF708F8139B002B48
:1018E400F6DCB8F1000F26D1069B13F0800F5ED012
:1018F4002E210498FEF7FAFF4646A8EB06082CB3FF
:101904001398301AFEF7C2FF02460B46504659465A
:1019140000F07EFB00F00EFA04460D46002E3AD08D
:1019240006F10053013B714F07EBC307CDE902AB4E
:10193400DDF810B01DE02E210498FEF7D7FF4646CF
:10194400102EA8BF102626EAE676D6E73046FEF724
:101954009DFF02460B465046594600F059FB00F0E5
:10196400E9F904460D46D9E730215846FEF7BEFF93
:101974008EB1013E77E802239D4208BF9442F3D31F
:1019840030210131C9B2A41A65EB03059D4208BF99
:101994009442F6D2E9E7B8F1000F08D03024454666
:1019A400013D21460498FEF7A1FF002DF8D1069AC7
:1019B40012F4806F2FD002F40053002B14BF452182
:1019C40065210498FEF792FF139B002B33DB2B2138
:1019D4000498FEF78BFF1399632934DC1399444C64
:1019E40084FB0132C917C1EBA2013031C9B2049D95
:1019F4002846FEF77BFF139B84FB0324D917C1EB16
:101A0400A40101EB8101A3EB410303F13001C9B24D
:101A14002846FEF76BFF059B002B3FF4FBAB20240D
:101A24001D46013D21460498FEF760FF002DF8D1C4
:101A34000595FFF7EFBB2D210498FEF757FF139B85
:101A44005B421393C7E72B4C84FB0132C917C1EBEC
:101A540062113031C9B20498FEF748FF139A84FB2F
:101A64000234D317C3EB6413642101FB13231393D0
:101A7400B4E74FF00108FFF703BB52465B465AEA4E
:101A84000B0108BF002411D00DF13300002402F033
:101A94000701303100F8011F0134D10841EA4371D4
:101AA400DE080A46334652EA0301F0D1A8EB0408E3
:101AB40028EAE878029BA3EB0806361B059BFF2B5C
:101AC40088BF06F1FF36059B002B00F09680013E8F
:101AD40015F4007F69D0059BFF2B71D89DF8141075
:101AE4000498FEF703FF8BE07829000870290008AA
:101AF400676666661F85EB515AEA0B0308BF00242C
:101B0400D4D0002405F4004356465F46CDE906AB25
:101B1400AB46CDF82890C14698462EE002F00F005F
:101B24006044017831700134110941EA03711809E4
:101B34000A460346013652EA0301B7D0002FEDD01E
:101B440002F00F00704401783170ECE714AB1D19FA
:101B54000A22002330463946FEF76CFF303205F87E
:101B64001C2C01340A22002330463946FEF762FF5A
:101B740006460F4656EA07030ED0B8F1000FE5D02B
:101B840004F00303032BE1D114AB23444FF02C02E4
:101B940003F81C2C0134D9E75D46C846DDF82890CB
:101BA40084E7002482E7002480E7049A314628462B
:101BB400FEF7C4FE059BFF2B01D8002606E0002695
:101BC400059BC3F307210498FEF790FE059BBBB168
:101BD40084E7A146FFF71EBB04998B682BB10A6802
:101BE40049688A423CBF00219954049B186815B087
:101BF400BDE8F08F4FF0FF30F9E715F4007FD4D043
:101C0400049F3A4631462846FEF798FE04973A4622
:101C140041463020FEF784FE631E05930DD40DAFBC
:101C24003C44DDF8108014F8011D4046FEF75EFECA
:101C3400BC42F8D14FF0FF33059315F0100F3FF479
:101C4400E9AA049A31462020FEF76AFEFFF7E2BAB9
:101C540038B504460D46FEF717FE074B1D6044F0E9
:101C64008004064B1C601A461368002BFCD1FEF757
:101C74000CFE014B186838BD240000202000002011
:101C840050EA010308BF704711F000424FEA1252B4
:101C940042F4806242F03D0240F10480002340425D
:101CA40063EB0101002902BF01460020203AB1F58F
:101CB400803F3FBF103A090441EA10410004B1F1EA
:101CC400807F3FBF083A090241EA10610002B1F186
:101CD400805F3FBF043A090141EA1071000111F02D
:101CE400404F01BF023A890041EA907180000942E5
:101CF4005FBF490041EAD0714000013A83054FEAD1
:101D0400D02040EA41504FEAD12108BF10F0010F22
:101D140001EB025198BF7047013041F10001704757
:101D240050EA010308BF70475FF4806242F03D024D
:101D3400FFF7B8BF4B001AD25A0DA2F54072FF3A12
:101D440015D4D2F13F0215DBC90241EA5051C00259
:101D540041F00041202A22BF08460021B2F12002AE
:101D6400D141D04048409140D14048407047002084
:101D7400002170476FF000010846704781F0004170
:101D840083F0004383F00043F0B491EA030F00F1C1
:101D94008E80841A71EB030603D212197341001B5F
:101DA400B1414FF07F4646F4600616EA410F08BF82
:101DB40062E0B6EB410F98BF69E04FEA1154A4EB1F
:101DC4001357B14341F4801116EA430F07BF0023B0
:101DD4000022B34343F48013D7F1200634D303FA2B
:101DE40006F5401941F1000122FA07F5401923FADA
:101DF40007F541EB050102FA06F211F4001F19D1AF
:101E040021F4801101EB0451F0BCB2F1004F08BF82
:101E140010EA500F50F1000041F100014FF07F43F0
:101E240043F46003B3EB410F88BF7047090D090504
:101E34000020704749085FEA30005FEA320228BF99
:101E440042F001020134DBE7203F402F19D223FA8C
:101E540007F5401941F10001C7F12006124218BFED
:101E6400012203FA06F52A43C7E711EA560F04BF15
:101E740000200021F0BC704701F000410020F0BCBC
:101E8400704721F4801101EB0451F0BC704700420B
:101E940018BF41F00101B6EB410F04BFF0BC70471D
:101EA4004FF0FE4141F478010020F0BC704783F00C
:101EB4000043841A71EB030705D287F00047001B27
:101EC400B94112197B415FF07F4656F4600616EA69
:101ED400430FCAD0B6EB410F40F28C800C0DA4EB3B
:101EE4001357C90241EA5051C00241F00041DB02DC
:101EF40043EA5253D20243F00043D7F120065AD3A7
:101F040002FA06FCFA4003FA06F52A43FB401CEAEF
:101F14000C0F18BF42F00102801A9941E30A6405CC
:101F2400640D11F0404F2ED427D1002902BF014681
:101F34000020203C00295BD0B1F5803F3FBF103C1E
:101F4400090441EA10410004B1F1807F3FBF083C1D
:101F5400090241EA10610002B1F1805F3FBF043C15
:101F6400090141EA1071000111F0404F01BF023C28
:101F7400890041EA9071800009425FBF013C490039
:101F840041EAD0714000002C11DD420521F00041EE
:101F9400C00A40EA4150C90A41EAC371460872F1D5
:101FA400004250F1000051EB0451F0BC7047002096
:101FB400D907F0BC7047A7F12007202F0CD2C7F136
:101FC400200603FA06F5FB402A4318BF43F0010339
:101FD400C01A61F10001A1E721F00041C00A40EA02
:101FE4004150C90A01EB0451F0BC704700200021A4
:101FF400F0BC7047004218BF41F00101B6EB410F3D
:102004007FF44EAFB6EB430F3FF44AAFF0BC7047DA
:10201400F0B5574F81EA030517EA010E1EBF9EEA89
:10202400070F17EA030494EA070F64D04EEAD57E3B
:10203400A64421EA470141F4801123EA470343F40B
:102044008013A1FB0247A0FB036536197D41A1FB68
:10205400034747F10003A0FB0217F619654153F14A
:102064000003094218BF46F001061427B3F5007FA8
:1020740047F1000734BF3F4A3F4ABEEB020E31D45A
:10208400C7F1200403FA04F105FA04F025FA07F273
:10209400114326FA07F2104316FA04F421F48011CE
:1020A4004FEA5E0741EA47010AD0B4F1004F50F10C
:1020B400000041F10001B4F1004F08BF20F001001D
:1020C4002B4F1EEA070F10D041EACE71BE453CBF2C
:1020D400BDE8F04070472649002041EACE71BDE8D2
:1020E400F04070471EEB020EF5D44FEACE7100208B
:1020F400BDE8F0407047394204BF01F000410020C0
:10210400004218BF41F001013B4204BF03F0004309
:102114000022124218BF43F0010307EA0304BC4241
:1021240018BF9EEA070F05D005F000410020BDE866
:10213400F040704721F0004123F00043B9420FD82A
:10214400BB420DD8002918BF002B09D005F000416F
:1021540041F0FE4141F470010020BDE8F0407047B9
:102164004FF0FE4141F478010020BDE8F040704793
:102174000000F07F0000F03F0000E03FF0B581EA8E
:10218400030E0EF0004E814F17EA41051EBF95EA7B
:10219400070F17EA430494EA070F00F0C5806D0D9A
:1021A400A5EB545707F580674FF0004646EAC12473
:1021B40044EA5054C00246EAC32343EA5253D202CB
:1021C400801A9C4104D20018644180185C41013F8C
:1021D4005B084FEA32020025002140F001004FF075
:1021E400070604E0801A9C4136D340416441801ABA
:1021F4009C4136D340416441801A9C4136D34041CE
:102204006441801A9C4136D340416441801A9C4108
:1022140036D340416441013E17D0801A9C4136D3E5
:1022240040416441801A9C4136D340416441801A44
:102234009C4136D340416441090201EB15612D02F2
:10224400454020F0FF004540CCE7801A9C4156D31E
:1022540035E080185C41C8D20018644180185C41A4
:10226400C8D20018644180185C41C8D20018644187
:1022740080185C41C8D20018644180185C41C8D2FF
:1022840000186441013E17D080185C41C8D2001880
:10229400644180185C41C8D20018644180185C41D4
:1022A400C8D200186441090201EB15612D024540B2
:1022B40020F0FF004540CCE780185C411FD3420961
:1022C40018BF44F00104490101EBD56100F01F007F
:1022D40000EB451021F4801141EA0E01013041F177
:1022E4000001244208BF20F00100B7F5006F3EDA78
:1022F400013F49DD01EB0751BDE8F040704749015A
:1023040001EBD56100F01F0000EB451021F48011B2
:1023140041EA0E01B7F5006F29DA013F34DD01EB24
:102324000751BDE8F0407047004218BF41F0010179
:10233400124218BF43F00103B7EB410F2CBFB7EBB8
:10234400430F1CE0B7EB410F04BFB7EB430F16E09C
:1023540017EA410F04BF17EA430F10E017EA410FD1
:1023640012D017EA430F02D0B7EB430F0CD04EF054
:10237400FE4141F470010020BDE8F04070474FF089
:10238400FE4141F47801F6E77146F4E70000E0FF0E
:102394004FF4001C1CEB410F98BF1CEB430F0CD8EF
:1023A40050EA410C08BF52EA430C08D0904208BFDF
:1023B40099420CBF01200020704700207047012083
:1023C400704700BF4FF4001C1CEB410F98BF1CEB7F
:1023D400430F11D851EA030C50EA4C0C5CEA020C8E
:1023E4000CD004D282428B4180410130704790422C
:1023F40099418041013070470020704701207047A7
:102404004FF4001C1CEB410F98BF1CEB430F11D879
:1024140051EA030C50EA4C0C5CEA020C0CD004D2D6
:102424009042994180410130704782428B41804102
:102434000130704700207047012070474FF4001CA2
:102444001CEB410F98BF1CEB430F11D851EA030C4E
:1024540050EA4C0C5CEA020C0AD004D29042994136
:1024640080414042704782428B41804140427047E4
:10247400002070474FF4001C1CEB410F98BF1CEB6D
:10248400430F11D851EA030C50EA4C0C5CEA020CDD
:102494000AD004D282428B4180414042704790422C
:1024A40099418041404270470020704701F000404C
:1024B400704700BF0128494111F5001F0CBF0120DE
:1024C400002070470128494111F5001F8CBF0120ED
:1024D400002070472DE9F041002390460022064673
:1024E4000F46FFF755FF88B927F0FF4323F4E003B5
:1024F40043F07F55C7F30A5345F40015A3F2FE33A6
:1025040030462946C8F80030BDE8F0810023304643
:102514003946C8F80030BDE8F08100BF2DE9F0412C
:102524000023904600220F4604460D46FFF730FF75
:10253400B8B940F2FE72C7F30A534344934214DC21
:10254400B8F1000F01DB002B0FDB002B09DD25F0B8
:10255400FF4222F4E00242EA035520462946BDE840
:10256400F08100200021BDE8F081FEF7F9F903466F
:10257400034A0020126803491A60BDE8F08100BFD5
:10258400F42800080000F07F2DE9F0410024002524
:1025940090462B46224606460F46FFF7F9FE30BB0F
:1025A400C7F30A53A3F2FF32002A26DB332A2ADCBC
:1025B4004FF0FF3E174CC2F120052EFA02F004FA48
:1025C40005F5A3F21F4324FA03F3284324FA02F186
:1025D400184326EA000027EA010102460B4630466A
:1025E4003946C8E90023FFF7CDFBBDE8F081C8E90F
:1025F400004520462946BDE8F081C8E9004530463B
:102604003946BDE8F081C8E9006720462946BDE89F
:10261400F08100BFFFFF0F00F8B50022002304463D
:102624000D46FFF7B5FE80BBC5F30A53A3F2FF3294
:10263400002A204629462BDB332A26DC4FF0FF3EB6
:10264400194EC2F120072EFA02F4A3F21F4306FA30
:1026540007F726FA03F33C431C4326FA02F521EA62
:10266400050320EA040229402040014314461D4684
:102674000BD0002A73F1000307DA10462946002222
:102684000A4BFFF77FFB04460D4620462946F8BD5A
:10269400002C75F100034FF0000403DB00252046F5
:1026A4002946F8BD024DF0E7FFFF0F000000F03FA0
:1026B4000000F0BF2DE9F04316461F4683B00446E0
:1026C4000D460022002330463946FFF761FEF8B973
:1026D40020462946FFF7F6FE20B12046294603B0DE
:1026E400BDE8F08330463946FFF7ECFEE0B900223E
:1026F400002320462946FFF74BFE0028EDD1204653
:102704002946FFF7D7FE90B1414BD3E90001E6E734
:10271400FEF726F903463F4A3D491268D1E9000114
:102724001A6003B0BDE8F08330463946D7E7304637
:102734003946FFF7BFFE0028CFD13046394600F0B6
:102744006BF807460E460B46024629462046FFF71D
:1027540015FD6A46FFF718FFDDE9002338463146C8
:10276400FFF756FC02460B4620462946FFF70AFBB4
:10277400002280468946002320462946FFF77AFE38
:1027840010B33846314642464B46FFF71BFEC0B1F4
:102794003A46334640464946FFF7F4FA04460D46A6
:1027A4000022002320462946FFF748FE002894D043
:1027B400204629463A463346FFF7E6FA04460D46D4
:1027C4008BE744464D46EBE73A4606F10043404664
:1027D4004946FFF7F7FD38B1404649463A46334685
:1027E400FFF7D2FA80468946002200234046494634
:1027F400FFF740FE40B13A46334640464946FFF7AC
:10280400C1FA04460D4668E744464D4665E700BFF5
:10281400102A0008F028000821F00041704700BF8A
:1028240048617264206661756C740A00433A5C55B1
:10283400736572735C466F6F486F6F6E675C446F4D
:1028440063756D656E74735C534547474552204507
:102854006D6265646465642053747564696F2050A7
:10286400726F6A656374735C536B656C65746F6EC9
:1028740020284C454420626C696E6B2045585449AD
:10288400295C5372635C4253505C4253502E630084
:102894004572726F72212048616C74206174202526
:1028A400732025640D0A0000696E74723A20627404
:1028B4006E3D25690D0A00005345503135302053D3
:1028C4006B656C65746F6E0D0A0000003031323335
:1028D4003435363738396162636465663031323392
:1028E40034353637383941424344454621000000E7
:1028F400220000000000000000002440000000004E
:1029040000005940000000000088C340000000009F
:1029140084D797410080E03779C34143176E05B5EA
:10292400B5B89346F5F93FE9034F384D321D30F9F8
:102934004877825A3CBF737FDD4F15752D494E464B
:10294400000000002D696E66000000002B494E4611
:10295400000000002B696E66000000004E414E002E
:102964006E616E00286E756C6C2900000100000019
:10297400000000000A0000000000000064000000E5
:1029840000000000E8030000000000001027000021
:1029940000000000A08601000000000040420F007B
:1029A40000000000809698000000000000E1F5059A
:1029B4000000000000CA9A3B0000000000E40B5431
:1029C4000200000000E87648170000000010A5D4BB
:1029D400E800000000A0724E1809000000407A10C0
:1029E400F35A00000080C6A47E8D03000000C16F6E
:1029F400F286230000008A5D78456301000064A725
:102A0400B3B6E00D0000E8890423C78A0000000083
:042A14000000F87F47
:102A180000A24A04000000000000000001020304B4
:042A2800060708098C
:0400000508000131BD
:00000001FF
